:1000000012C037C52BC081C029C028C0C1C026C0BE
:1000100025C024C023C0DFC007C120C01FC01EC030
:100020001DC01CC01BC011241FBECFE5D4E0DEBF25
:10003000CDBF10E0A0E6B0E0E4E6FEE002C005902F
:100040000D92A437B107D9F710E0A4E7B0E001C0E2
:100050001D92A63CB107E1F7D7D502C7D1CF25B392
:1000600090E0FC01E659FF4F277C3081232B25BB14
:1000700022B3805A9F4F2778FC018081282B22BB16
:100080000895CF93DF9300D0CDB7DEB785B3887FD7
:1000900085BB81E060E070E0F1D28FEE99E4A2E0F0
:1000A00081509040A040E1F700C000008091BD0069
:1000B000BE016F5F7F4FBAD389819A8164E670E099
:1000C00011D66093BA0069817A812091BA0030E03C
:1000D0008CE99FEF289FA001299F500D389F500D5C
:1000E0001124640F751F2AE030E0CB01B901FAD565
:1000F0006093BB0089819A81B901F4D58093BC00DB
:100100000F900F90DF91CF9108951F920F920FB62D
:100110000F9211242F933F934F935F936F937F938D
:100120008F939F93AF93BF93EF93FF93809174004E
:100130008F5F8093740080917400833010F0109270
:10014000740085B3887F85BBE0917400F0E0E654CD
:10015000FF4F808184DF25B33091740081E090E00F
:1001600002C0880F991F3A95E2F7282B25BBFF9113
:10017000EF91BF91AF919F918F917F916F915F911F
:100180004F913F912F910F900FBE0F901F90189598
:100190001F920F920FB60F9211242F933F934F93FC
:1001A0005F936F937F938F939F93AF93BF93EF93DF
:1001B000FF9367DFFF91EF91BF91AF919F918F9177
:1001C0007F916F915F914F913F912F910F900FBE53
:1001D0000F901F9018951F920F920FB60F92112437
:1001E0002F938F939F93EF93FF938BB19CB1E091EB
:1001F0009700EF5FEF7120919800E21741F088714E
:10020000E0939700F0E0E756FF4F908301C082E053
:100210008093B900FF91EF919F918F912F910F9053
:100220000FBE0F901F9018951F920F920FB60F924E
:1002300011248F939F93EF93FF939091750080917A
:100240007600981761F0E0917600EF5FEF71E09330
:100250007600F0E0E958FF4F80818CB901C05598D5
:10026000FF91EF919F918F910F900FBE0F901F9074
:1002700018951092750010927600109297001092C7
:10028000980097FF03C022E02BB99F7790BD89B9F2
:1002900088E98AB986E880BD089590919700809199
:1002A0009800981789F0E0919800EF5FEF71E09364
:1002B0009800F0E0E756FF4F80819091B900392F08
:1002C00020E0280F311D02C020E031E0C90108956F
:1002D000909175009F5F9F71209176009217E1F3D6
:1002E000E92FF0E0E958FF4F808390937500559A0D
:1002F0000895EF92FF92CF93DF93E82EE7017E01FE
:10030000F92EE70101C0E4DF89918823E1F7DF914D
:10031000CF91FF90EF900895CF93DF93EC0101C050
:10032000D7DFFE01219684918823D1F7DF91CF9109
:10033000089586B384700895C29ABA9A08951F9357
:10034000DF93CF930F92CDB7DEB71FB7F894BA9A69
:1003500000C08111BA9894E09A95F1F70000B29B21
:1003600080E0EEE0EA95F1F70000BA98662319F014
:100370008983E2DF89811FBFF3E0FA95F1F700007E
:100380000F90CF91DF911F910895BA98C298089568
:10039000C298BA9A80EA8A95F1F79FB7F894BA980A
:1003A00085E18A95F1F7000086B39FBF9AE89A9598
:1003B000F1F700C0B29B02C08470089581E00895F7
:1003C000817060E0BCDF08950F931F93182F08E041
:1003D000812F8170F5DF1695811110680150C1F7EA
:1003E000812F1F910F9108950F931F93182F08E0ED
:1003F000812F8170013011F060E001C061E09FDF6A
:10040000169581111068015099F7812F1F910F9156
:100410000895FF920F931F93CF93DF93182FEB0153
:10042000F42EB6DF209741F085E5CEDF08E0899114
:10043000CBDF0150E1F702C08CECC6DFFF2019F0E2
:10044000812FD2DF02C0812FBFDFDF91CF911F91BB
:100450000F91FF9008958FEFB7DF0895DF92EF922D
:10046000FF920F931F93CF93DF93182FEB0190DF31
:10047000882369F580EFA8DFEE2400E498EFD92EF9
:10048000D00E81E09DDFF82E81E09ADF882319F0FD
:10049000FF2069F01FC0FF2051F4011728F0888168
:1004A00080FF05C0101719F0E02EFF24F3948F2D64
:1004B00087DF888186958883FF2011F08068888394
:1004C00001500D15F1F6002339F02196D7CFEE2417
:1004D000EA9402C08EEFE82E8E2DDF91CF911F910E
:1004E0000F91FF90EF90DF90089540E092DF089524
:1004F00041E08FDF0895FB01518140E0208130E031
:10050000242B352B803171F4A9014E7FA3E0440FD9
:10051000551FAA95E1F796812CE030E0291B31099F
:10052000240F351F37FF05C0309521953F4FA1E0BF
:1005300001C0A0E0883211F0823289F4848190E019
:10054000807690708032910539F08034910531F0D9
:10055000009729F4287F03C02C7F01C02E7FA901BA
:10056000E4E056954795EA95E1F7CA01880F991F8F
:1005700063E0440F551F6A95E1F7840F951F2F70B4
:10058000307060E872E0269FA001279F500D369FD3
:10059000500D1124AA2311F440505E4F9A01232FCD
:1005A000332726952695280F391FAA2319F0309551
:1005B00021953F4FC9018A5D9D4F47E089309407DF
:1005C00010F020ED37E0C9010895EF92FF920F93EC
:1005D0001F93CF93DF939C018B018EEBB90185DFD5
:1005E000E02EE7017E01F12EE701B9E0FB2E33DFBB
:1005F0008993FA94E1F7C80169E070E049D1882352
:1006000011F083E001C080E0DF91CF911F910F9145
:10061000FF90EF9008950F931F93CF93DF938C017A
:10062000EB01F8018081BE0119DFF8018083815060
:100630008D3F40F48881883239F0803129F0823250
:1006400081F702C081E001C080E0DF91CF911F916E
:100650000F9108951F93CF93DF93EC0199DE84EB04
:10066000BE0143DF81E0ACDE182F92DE81E0112372
:1006700009F480E0DF91CF911F9108951F93DF93DC
:10068000CF9300D0CDB7DEB7182F69837A8380DE91
:1006900050DE69817A81882349F0113019F084E4B1
:1006A00027DF02C084E421DF80E001C082E00F90F8
:1006B0000F90CF91DF911F91089581E081DE91E04D
:1006C000811190E0892F0895CF92DF92EF92FF92EF
:1006D0000F931F93DF93CF93CDB7DEB728970FB655
:1006E000F894DEBF0FBECDBF8B01473008F458C071
:1006F0002CEF893192070CF453C0E7E280319E075A
:100700000CF04EC097FF05C0909581959F4F41E03A
:1007100001C040E06E010894C11CD11C760101C0EB
:10072000C9016AE070E04887DDD29B01805DF70176
:1007300081937F015E2F5C1948851216130684F39E
:100740009E012F5F3F4F852F992787FD909544236A
:1007500051F0820F931F2DE2FC01208320E0CE0197
:1007600001963EE204C0820F931F2BE2F5CFF80101
:10077000E20FF11DDC01A50FB11D4C9140832F5FED
:10078000515031F4F801E20FF11D30832F5FEFCFAC
:1007900057FFEDCFF801E20FF11D108280E001C09C
:1007A00081E028960FB6F894DEBF0FBECDBFCF9183
:1007B000DF911F910F91FF90EF90DF90CF90089500
:1007C000BF92CF92DF92EF92FF920F931F93DF932E
:1007D000CF93CDB7DEB729970FB6F894DEBF0FBE23
:1007E000CDBF8C016B01D4DDC8017E010894E11CF2
:1007F000F11CB701EADEB82E882339F4F8018081B4
:10080000B70179DEF601918380838B2D29960FB68F
:10081000F894DEBF0FBECDBFCF91DF911F910F9136
:10082000FF90EF90DF90CF90BF900895CF92DF922E
:10083000EF92FF920F931F93DF93CF93CDB7DEB765
:1008400029970FB6F894DEBF0FBECDBFC82E7B012F
:1008500080E090E08E010F5F1F4FB801B6DED82E0A
:10086000882331F48C2DB80146DEF7019183808313
:100870008D2D29960FB6F894DEBF0FBECDBFCF9158
:10088000DF911F910F91FF90EF90DF90CF9008952F
:10089000282F392FF90120E030E080E0A8E112C0D4
:1008A000419198E0542F5827B52FB17050FD8A27F9
:1008B0008695B13009F48068915011F04695F2CFD9
:1008C0002F5F3F4F2617370759F70895DF93CF93D0
:1008D000CDB7DEB72A970FB6F894DEBF0FBECDBFF7
:1008E000BE016F5F7F4F4AE050E023D202DD2A96BF
:1008F0000FB6F894DEBF0FBECDBFCF91DF91089544
:10090000DF93CF93CDB7DEB72F970FB6F894DEBF46
:100910000FBECDBFAE014F5F5F4F2AE030E028D25F
:10092000E8DC2F960FB6F894DEBF0FBECDBFCF9197
:10093000DF910895DF93CF93CDB7DEB72F970FB632
:10094000F894DEBF0FBECDBFDC01CB01BE016F5FEF
:100950007F4F4AE050E03ED2CCDC2F960FB6F894A1
:10096000DEBF0FBECDBFCF91DF9108958F708A306B
:1009700010F0895C01C0805DABDC08951F93182FD7
:1009800082958F70F3DF812FF1DF1F9108951F9300
:10099000DF93CF9300D0CDB7DEB7182F892F6A83AE
:1009A0007983ECDF812FEADF7981872FE7DF6A81A6
:1009B000862FE4DF0F900F90CF91DF911F91089564
:1009C0000F931F93CF93DF93C7E0D0E0082F10E081
:1009D000C8010C2E02C0959587950A94E2F780FF16
:1009E00002C081E301C080E373DC21973FEFCF3F7A
:1009F000D30771F7DF91CF911F910F91089587B3BE
:100A0000836087BBC098C19A8AE085BF80E48BBFB2
:100A1000CCD008958091C500882331F4C1988FEF20
:100A2000EED0C19A8074089580E00895DF93CF934B
:100A30000F92CDB7DEB7C1988F7180626983DFD026
:100A40006981862FDCD0C19A0F90CF91DF910895F4
:100A5000CF93DF93EC01C19881E6D1D0CE01BE01E6
:100A600040E1AED0C19A87E060E4E0DFDF91CF9152
:100A700008951F920F920FB60F9211242F933F9358
:100A80004F935F936F937F938F939F93AF93BF9396
:100A9000EF93FF938091C500882371F0C1988FEF89
:100AA000AED0C19AC09880E06BE4C0DFC09A1092CB
:100AB000C50087E060E3BADFFF91EF91BF91AF918E
:100AC0009F918F917F916F915F914F913F912F9166
:100AD0000F900FBE0F901F90189585E062E0A6DF83
:100AE00081E160E1A3DF1092C50080E06BE49EDF4E
:100AF000C09A08950F931F93DF93CF930F92CDB7B2
:100B0000DEB78B01C1988F71498379D0C801B801D4
:100B1000498156D0C19A0F90CF91DF911F910F91CB
:100B200008950F931F93DF93CF930F92CDB7DEB746
:100B30008B01C1988F718062498361D0C80149815E
:100B4000642F50D0C19A0F90CF91DF911F910F91D8
:100B50000895BC0180E145E0E4DF0895BC01C09840
:100B60008AE045E0DEDFC09A08951F93CF93DF93BC
:100B7000EC01162F8091C5008823E1F7C09881E031
:100B80008093C50080E06AE451DFC19881EE37D0E0
:100B9000C19AC19880EA33D0CE01612F23D0C19A87
:100BA000C09ADF91CF911F91089587B3877C87BB4F
:100BB00087B3886287BB81E58DB981E08EB90895DE
:100BC000262F372FF901282F392FD90180E007C0B0
:100BD0009D919FB9779BFECF9FB191938F5F8417B3
:100BE000B8F30895282F392FF90180E005C09191BD
:100BF0009FB9779BFECF8F5F8617C8F308958FB993
:100C0000779BFECF8FB10895CF93DF93CDB7DEB73B
:100C100029970FB6F894DEBF0FBECDBF8898909A83
:100C200084B38F6384BB81B3886F81BB85B3887FB6
:100C300085BB80E395E79BBD8ABD8EB588608EBD80
:100C40008EB585608EBD80E189BF85E083BD85B5A9
:100C5000886085BD85B5876085BD89B7806889BF97
:100C6000789480E08093BC008093BB008093BA00AE
:100C70002FE53AEE40E0215030404040E1F700C01F
:100C800000008F5F8A3071F783DB8FEF898380E00C
:100C900015C0CE010196BE016E5F7F4FBCDC89811D
:100CA0008F3F89F08E3F79F0DE011296EDEBF0E098
:100CB00088E09D9191938150E1F781E0998199239A
:100CC00011F0882331F3DDD985B78F7885BF85B7DB
:100CD000806885BF85B7806885BF889585B78F7721
:100CE00085BFF2CF97FB092E07260AD077FD04D0E7
:100CF0000CD006D000201AF4709561957F4F0895AE
:100D0000F6F7909581959F4F0895AA1BBB1B51E163
:100D100007C0AA1FBB1FA617B70710F0A61BB70B6B
:100D2000881F991F5A95A9F780959095BC01CD0110
:100D30000895FB019F01E8944230BCF04532ACF4C9
:100D40004A3029F497FB1EF4909581959F4F642FAC
:100D50007727DBDF805D8A330CF0895D8193CB01DF
:100D60000097A9F716F45DE251931082C90146C0BD
:100D7000FA01CF93FF93EF9322303CF125322CF50B
:100D8000C22FE894CA3049F497FB3EF490958095C1
:100D9000709561957F4F8F4F9F4F2C2F332744279E
:100DA0005527FF93EF933AD0EF91FF91605D6A333F
:100DB0000CF0695D6193B901CA01605070408040D8
:100DC000904059F716F4CDE2C19310828F919F9114
:100DD000CF9114C0FB019F0142306CF045325CF4AE
:100DE000642F772792DF805D8A330CF0895D8193D1
:100DF000CB010097A9F71082C90100C0DC01FC01FA
:100E0000672F71917723E1F7329704C07C916D933E
:100E100070836291AE17BF07C8F30895A1E21A2E3E
:100E2000AA1BBB1BFD010DC0AA1FBB1FEE1FFF1F8E
:100E3000A217B307E407F50720F0A21BB30BE40BDE
:100E4000F50B661F771F881F991F1A9469F7609525
:100E50007095809590959B01AC01BD01CF010895DF
:040E6000F894FFCF34
:100E64004078203018100078001000082000081086
:040E7400100000006A
:00000001FF
